{
  "transactions": [
    {
      "hash": "0x2bfb9d3441527509b472efa37e28a6cb2c043da8649b34a66eee1fac30a32630",
      "transactionType": "CALL",
      "contractName": null,
      "contractAddress": "0x496d8c5b1d4ddf064f5ebae8946114abc4bbaf7f",
      "function": "mintNft(string)",
      "arguments": [
        "\"ipfs://bafybeig37ioir76s7mg5oobetncojcm3c3hxasyd4rvid4jqhy4gkaheg4/?filename=0-PUG.json\""
      ],
      "transaction": {
        "from": "0xc09ba38b7c069e7666ff2c84768f5d553e524ece",
        "to": "0x496d8c5b1d4ddf064f5ebae8946114abc4bbaf7f",
        "gas": "0x40fcc",
        "value": "0x0",
        "input": "0xda86f4a900000000000000000000000000000000000000000000000000000000000000200000000000000000000000000000000000000000000000000000000000000057697066733a2f2f62616679626569673337696f6972373673376d67356f6f6265746e636f6a636d3363336878617379643472766964346a71687934676b61686567342f3f66696c656e616d653d302d5055472e6a736f6e000000000000000000",
        "nonce": "0x2f",
        "chainId": "0xaa36a7"
      },
      "additionalContracts": [],
      "isFixedGasLimit": false
    }
  ],
  "receipts": [
    {
      "status": "0x1",
      "cumulativeGasUsed": "0x9cc093",
      "logs": [
        {
          "address": "0x496d8c5b1d4ddf064f5ebae8946114abc4bbaf7f",
          "topics": [
            "0xddf252ad1be2c89b69c2b068fc378daa952ba7f163c4a11628f55a4df523b3ef",
            "0x0000000000000000000000000000000000000000000000000000000000000000",
            "0x000000000000000000000000c09ba38b7c069e7666ff2c84768f5d553e524ece",
            "0x0000000000000000000000000000000000000000000000000000000000000000"
          ],
          "data": "0x",
          "blockHash": "0x6ff323c798d468278cbe0fe1cfb3390c291d0348c9e9fa6e460c119189aeda76",
          "blockNumber": "0x62ec5b",
          "transactionHash": "0x2bfb9d3441527509b472efa37e28a6cb2c043da8649b34a66eee1fac30a32630",
          "transactionIndex": "0x44",
          "logIndex": "0x8c",
          "removed": false
        }
      ],
      "logsBloom": "0x00000000000000000000000000004000000000000000000000000000000000000000000000000000000000000000000000000000000000000000000000000000000000000000000000080008000000000000000000000000080000000000000000000000020000000000020000000800000000000000000000000010000000000000000000000000000000000000000000000000000000000000000000000000000000000000000000000000000000000000000000000000000000000000000000000002000000000001000000000000000000000000000000000000000020000000000000000000000000000000000000000000000000000000800000000000",
      "type": "0x2",
      "transactionHash": "0x2bfb9d3441527509b472efa37e28a6cb2c043da8649b34a66eee1fac30a32630",
      "transactionIndex": "0x44",
      "blockHash": "0x6ff323c798d468278cbe0fe1cfb3390c291d0348c9e9fa6e460c119189aeda76",
      "blockNumber": "0x62ec5b",
      "gasUsed": "0x2c6f9",
      "effectiveGasPrice": "0x638871e1",
      "from": "0xc09ba38b7c069e7666ff2c84768f5d553e524ece",
      "to": "0x496d8c5b1d4ddf064f5ebae8946114abc4bbaf7f",
      "contractAddress": null
    }
  ],
  "libraries": [],
  "pending": [],
  "returns": {},
  "timestamp": 1723426433,
  "chain": 11155111,
  "commit": "a428fd9"
}