{
  "transactions": [
    {
      "hash": "0x9cd64f076d7ef1ee8c7b739e5cc42edc3fa90d4cc604a971d0b0d9a36df19caf",
      "transactionType": "CALL",
      "contractName": null,
      "contractAddress": "0x61c7ec08dbbd90e43f069a1eb5e5936cdf556c80",
      "function": "mintNft(string)",
      "arguments": [
        "\"ipfs://bafybeig37ioir76s7mg5oobetncojcm3c3hxasyd4rvid4jqhy4gkaheg4/?filename=0-PUG.json\""
      ],
      "transaction": {
        "from": "0xc09ba38b7c069e7666ff2c84768f5d553e524ece",
        "to": "0x61c7ec08dbbd90e43f069a1eb5e5936cdf556c80",
        "gas": "0x34c6a",
        "value": "0x0",
        "input": "0xda86f4a900000000000000000000000000000000000000000000000000000000000000200000000000000000000000000000000000000000000000000000000000000057697066733a2f2f62616679626569673337696f6972373673376d67356f6f6265746e636f6a636d3363336878617379643472766964346a71687934676b61686567342f3f66696c656e616d653d302d5055472e6a736f6e000000000000000000",
        "nonce": "0x2d",
        "chainId": "0xaa36a7"
      },
      "additionalContracts": [],
      "isFixedGasLimit": false
    }
  ],
  "receipts": [
    {
      "status": "0x1",
      "cumulativeGasUsed": "0xf11c59",
      "logs": [
        {
          "address": "0x61c7ec08dbbd90e43f069a1eb5e5936cdf556c80",
          "topics": [
            "0xddf252ad1be2c89b69c2b068fc378daa952ba7f163c4a11628f55a4df523b3ef",
            "0x0000000000000000000000000000000000000000000000000000000000000000",
            "0x000000000000000000000000c09ba38b7c069e7666ff2c84768f5d553e524ece",
            "0x0000000000000000000000000000000000000000000000000000000000000001"
          ],
          "data": "0x",
          "blockHash": "0x9ec83fb1b28fc06b6d87d596764850d55fe3b2174b8d72aa274914fbf2c03233",
          "blockNumber": "0x62ec44",
          "transactionHash": "0x9cd64f076d7ef1ee8c7b739e5cc42edc3fa90d4cc604a971d0b0d9a36df19caf",
          "transactionIndex": "0x33",
          "logIndex": "0x132",
          "removed": false
        }
      ],
      "logsBloom": "0x00000000000000000000000000000000000000000000000000000000000000000000000000000000000000000000000000000000000000000000000000040000000000000000000000000008000000000000000020040000080000000000000000000000020000000000020000000900000000000000000000000010000000000000000000000000000000000000000000000000000000000000000000000000000000000000000000000000000000000000000000000000000000000000000000000002000000000000000000000000000000000000001000000000000060000000000000000000000000000000000000000000000000000000800000000000",
      "type": "0x2",
      "transactionHash": "0x9cd64f076d7ef1ee8c7b739e5cc42edc3fa90d4cc604a971d0b0d9a36df19caf",
      "transactionIndex": "0x33",
      "blockHash": "0x9ec83fb1b28fc06b6d87d596764850d55fe3b2174b8d72aa274914fbf2c03233",
      "blockNumber": "0x62ec44",
      "gasUsed": "0x24161",
      "effectiveGasPrice": "0x8de9184c",
      "from": "0xc09ba38b7c069e7666ff2c84768f5d553e524ece",
      "to": "0x61c7ec08dbbd90e43f069a1eb5e5936cdf556c80",
      "contractAddress": null
    }
  ],
  "libraries": [],
  "pending": [],
  "returns": {},
  "timestamp": 1723426132,
  "chain": 11155111,
  "commit": "a428fd9"
}