{
  "transactions": [
    {
      "hash": "0xffee163e1b4a004aba286e365777204579d0b414e77b7f56bac900c0b2ee816e",
      "transactionType": "CALL",
      "contractName": null,
      "contractAddress": "0x61c7ec08dbbd90e43f069a1eb5e5936cdf556c80",
      "function": "mintNft(string)",
      "arguments": [
        "\"ipfs://bafybeig37ioir76s7mg5oobetncojcm3c3hxasyd4rvid4jqhy4gkaheg4/?filename=0-PUG.json\""
      ],
      "transaction": {
        "from": "0xc09ba38b7c069e7666ff2c84768f5d553e524ece",
        "to": "0x61c7ec08dbbd90e43f069a1eb5e5936cdf556c80",
        "gas": "0x40fcc",
        "value": "0x0",
        "input": "0xda86f4a900000000000000000000000000000000000000000000000000000000000000200000000000000000000000000000000000000000000000000000000000000057697066733a2f2f62616679626569673337696f6972373673376d67356f6f6265746e636f6a636d3363336878617379643472766964346a71687934676b61686567342f3f66696c656e616d653d302d5055472e6a736f6e000000000000000000",
        "nonce": "0x2c",
        "chainId": "0xaa36a7"
      },
      "additionalContracts": [],
      "isFixedGasLimit": false
    }
  ],
  "receipts": [
    {
      "status": "0x1",
      "cumulativeGasUsed": "0xa0a236",
      "logs": [
        {
          "address": "0x61c7ec08dbbd90e43f069a1eb5e5936cdf556c80",
          "topics": [
            "0xddf252ad1be2c89b69c2b068fc378daa952ba7f163c4a11628f55a4df523b3ef",
            "0x0000000000000000000000000000000000000000000000000000000000000000",
            "0x000000000000000000000000c09ba38b7c069e7666ff2c84768f5d553e524ece",
            "0x0000000000000000000000000000000000000000000000000000000000000000"
          ],
          "data": "0x",
          "blockHash": "0x9b2331981ab54236c8fa0f92268d18e71d9e808868f32aa7ee4bad92caf45e76",
          "blockNumber": "0x62ebe9",
          "transactionHash": "0xffee163e1b4a004aba286e365777204579d0b414e77b7f56bac900c0b2ee816e",
          "transactionIndex": "0x22",
          "logIndex": "0xa4",
          "removed": false
        }
      ],
      "logsBloom": "0x00000000000000000000000000000000000000000000000000000000000000000000000000000000000000000000000000000000000000000000000000000000000000000000000000000008000000000000000020000000080000000000000000000000020000000000020000000900000000000000000000000010000000000000000000000000000000000000000000000000000000000000000000000000000000000000000000000000000000000000000000000000000000000000000000000002000000000000000000000000000000000000001000000000000020000000000000000000000000000000000000000000000000000000800000000000",
      "type": "0x2",
      "transactionHash": "0xffee163e1b4a004aba286e365777204579d0b414e77b7f56bac900c0b2ee816e",
      "transactionIndex": "0x22",
      "blockHash": "0x9b2331981ab54236c8fa0f92268d18e71d9e808868f32aa7ee4bad92caf45e76",
      "blockNumber": "0x62ebe9",
      "gasUsed": "0x2c6f9",
      "effectiveGasPrice": "0x99202773",
      "from": "0xc09ba38b7c069e7666ff2c84768f5d553e524ece",
      "to": "0x61c7ec08dbbd90e43f069a1eb5e5936cdf556c80",
      "contractAddress": null
    }
  ],
  "libraries": [],
  "pending": [],
  "returns": {},
  "timestamp": 1723424839,
  "chain": 11155111,
  "commit": "a428fd9"
}